:020000040800F2
:1000000000000220913600084B3100084D310008F5
:100010004F31000851310008533100080000000042
:100020000000000000000000000000005531000842
:100030005731000800000000593100085B3100080A
:10004000E1360008E1360008E1360008E136000834
:10005000E1360008E1360008E1360008E136000824
:10006000E1360008E1360008E1360008E136000814
:10007000E1360008E1360008E1360008E136000804
:10008000E1360008E1360008E1360008E1360008F4
:10009000E1360008E1360008E1360008E1360008E4
:1000A000E1360008E1360008E1360008E1360008D4
:1000B00069310008E1360008E1360008E136000841
:1000C000E1360008E1360008E1360008E1360008B4
:1000D000E1360008E1360008E1360008E1360008A4
:1000E000E1360008E1360008E1360008E136000894
:1000F000E1360008E1360008E1360008E136000884
:10010000E1360008E1360008E1360008E136000873
:10011000E1360008E1360008E1360008E136000863
:10012000E1360008E1360008E1360008E136000853
:10013000E13600080000000000000000E136000881
:10014000E1360008E1360008E136000875310008A4
:10015000E1360008E1360008E1360008E136000823
:10016000E1360008E1360008E1360008E136000813
:10017000E1360008E136000800000000E136000822
:08018000E1360008E136000839
:1001900010B5054C237833B9044B13B10448AFF3C1
:1001A00000800123237010BD8401002000000000A6
:1001B0005C46000808B5034B1BB103490348AFF385
:1001C000008008BD00000000880100205C46000897
:1001D00001F0FF01102A2BDB10F0070F08D010F8F8
:1001E000013B013A8B422DD010F0070F42B3F6D1FC
:1001F000F0B441EA012141EA014122F007047FF015
:1002000000070023F0E80256083C85EA010586EA6B
:10021000010685FA47F5A3FA87F586FA47F6A5FAA7
:1002200087F68EB9EED1F0BC01F0FF0102F00702B3
:1002300032B110F8013B013A83EA010313B1F8D15E
:100240000020704701387047002D06BF354603383F
:10025000073815F0010F07D1013015F4807F02BF78
:10026000013015F4C03F0130F0BC0138704700BFC9
:1002700053B94AB9002908BF00281CBF4FF0FF310D
:100280004FF0FF3000F07AB9ADF1080C6DE904CE03
:1002900000F006F8DDF804E0DDE9022304B0704761
:1002A0002DE9F0478C460D460446089E002B51D19F
:1002B0008A4217466DD9B2FA82FEBEF1000F0BD00A
:1002C000CEF1200C01FA0EF520FA0CFC02FA0EF722
:1002D0004CEA050C00FA0EF44FEA174A250CBCFB59
:1002E000FAF81FFA87F90AFB18CC45EA0C4508FB17
:1002F00009F3AB420AD9ED1908F1FF3280F02381EE
:10030000AB4240F22081A8F102083D44ED1AA4B2AC
:10031000B5FBFAF00AFB105544EA054400FB09F965
:10032000A14509D9E41900F1FF3380F00A81A14504
:1003300040F2078102383C44A4EB090440EA08403B
:100340000021002E61D024FA0EF400233460736083
:10035000BDE8F0878B4207D9002E54D0002186E8F3
:1003600021000846BDE8F087B3FA83F1002940F088
:100370008E80AB4202D3824200F2FA80841A65EB8F
:1003800003050120AC46002E3FD086E81010BDE8E2
:10039000F08712B90127B7FBF2F7B7FA87FEBEF173
:1003A000000F34D1EB1B3A0C1FFA87FC0121B3FB81
:1003B000F2F8250C02FB183345EA03450CFB08F361
:1003C000AB4207D9ED1908F1FF3002D2AB4200F27F
:1003D000D1808046ED1AA3B2B5FBF2F002FB1055B6
:1003E00043EA05440CFB00FCA44507D9E41900F1DD
:1003F000FF3302D2A44500F2B8801846A4EB0C04E7
:1004000040EA08409DE731463046BDE8F087CEF12E
:10041000200405FA0EF307FA0EF720FA04F83A0C56
:1004200025FA04F448EA0308B4FBF2F14FEA184550
:1004300002FB11441FFA87FC45EA044501FB0CF35B
:10044000AB4200FA0EF409D9ED1901F1FF3080F04A
:100450008A80AB4240F2878002393D44EB1A1FFA92
:1004600088F5B3FBF2F002FB103345EA034500FBCD
:100470000CF3AB4207D9ED1900F1FF386FD2AB4254
:100480006DD902383D44EB1A40EA01418FE7C1F1D2
:10049000200722FA07F88B4005FA01F448EA030323
:1004A00020FA07FE4FEA134CFD404EEA040EB5FB5E
:1004B000FCF94FEA1E440CFB19551FFA83F844EA75
:1004C000054509FB08F4AC4202FA01F200FA01FA10
:1004D00008D9ED1809F1FF3043D2AC4241D9A9F156
:1004E00002091D442D1B1FFA8EFEB5FBFCF00CFB10
:1004F00010554EEA054400FB08F8A04507D9E4185A
:1005000000F1FF3529D2A04527D902381C4440EA22
:100510000940A4EB0804A0FB02894C45C6464D46A1
:1005200015D312D056B1BAEB0E0364EB050404FAEE
:1005300007F7CB401F43CC40376074600021BDE813
:10054000F0871846F8E69046E0E6C245EAD2B8EBF6
:10055000020E69EB03050138E4E72846D7E7404679
:1005600091E78146BEE7014678E702383C4445E71B
:10057000084608E7A8F102083D442BE7704700BF92
:1005800010B5084B044618684FF47A73B0FBF3F0CB
:1005900000F094F8002221464FF0FF3000F04EF8B2
:1005A000002010BDE800002008B50B4B1A6842F48B
:1005B00000721A601A6842F480621A601A6842F483
:1005C00080721A60032000F027F80020FFF7D8FFA0
:1005D00002F08BFD002008BD003C0240024A136877
:1005E00001331360704700BF54030020014B1868AB
:1005F000704700BF5403002037B50190FFF7F6FFA6
:10060000019C631C054618BF0134FFF7EFFF401B38
:10061000A042FAD303B030BD074AD36823F4E063A5
:100620001B041B0C43F0BF63000243F4003300F4CF
:10063000E0600343D360704700ED00E0174B30B536
:10064000DC68C4F30224C4F10703251D042B28BF72
:100650000423062D4FF0010505FA03F303F1FF33E0
:100660008CBF033C00241940A14005FA04F4013C6E
:100670002240002842EA01024FEA0212AFBF00F115
:10068000604000F00F00064BD2B2A5BF00F56140FC
:10069000D2B21A5480F8002330BD00BF00ED00E054
:1006A00014ED00E04209012300F01F0003FA00F0FE
:1006B000014B43F82200704700E100E00138B0F13F
:1006C000807F0AD2064B074A5860F02182F8231037
:1006D0000020072298601A6070470120704700BF11
:1006E00010E000E000ED00E0044B1A6804280CBFA5
:1006F00042F0040222F004021A60704710E000E0A9
:10070000704708B5FFF7FCFF08BD00002DE9F04F6A
:1007100085B00B68DFF8AC81684ADFF8AC910193D3
:1007200000234FF0010E019C0EFA03FE0EEA0406B0
:10073000B64540F0AE804C6824F01007022F16D169
:100740004FEAD30A00EB8A0A03F0070BDAF82050CD
:100750004FEA8B0B4FF00F0C0CFA0BFC25EA0C0C3C
:100760000D6905FA0BF545EA0C05CAF820504FEA69
:10077000430A0325D0F800B005FA0AF5ED4304F06A
:10078000030C0BEA050B0CFA0AFC013F4CEA0B0CBC
:10079000012FC0F800C011D8876807EA050BCF68A1
:1007A00007FA0AFC4CEA0B078760476827EA0E0E37
:1007B000C4F300179F4047EA0E074760C7683D40F3
:1007C0008F6807FA0AF73D43C560E50061D54FF031
:1007D000000BCDF80CB0D8F84470394D47F4804781
:1007E000C8F84470D8F8447007F480470397039F13
:1007F00023F0030707F1804707F59C3703F0030C4C
:10080000D7F808A04FEA8C0C4FF00F0E0EFA0CFE32
:10081000A8422AEA0E0E43D005F58065A84241D0D1
:1008200005F58065A8423FD005F58065A8423DD01A
:1008300005F58065A8423BD048453BD005F50065ED
:10084000A84239D005F58065A84214BF08250725C0
:1008500005FA0CF545EA0E05BD601568F74314F47A
:10086000803F0CBF3D4035431560556814F4003F90
:100870000CBF3D4035435560956814F4801F0CBF94
:100880003D4035439560D568A40254BF3D40354393
:10089000D5600133102B7FF444AF05B0BDE8F08F75
:1008A0005D46D5E70125D3E70225D1E70325CFE74C
:1008B0000425CDE70525CBE70625C9E7003C014027
:1008C000000002400038024000140240036919424F
:1008D00014BF0120002070470AB1816170470904EC
:1008E000FBE74369594041617047F0B506468BB05C
:1008F000002864D00323344680F8B93302F026FD83
:1009000054F8100B01F01EFB0FCC6D460FC50FCC39
:100910000FC594E8030085E80300371D97E80E0033
:10092000306801F0CFFA0021306801F011FB00219E
:100930003346324606F110040125084682F8381085
:10094000D18701310F2982F8395082F83B001064B9
:100950005064D06402F11C02F0D10022D6F800E00D
:10096000114602F1400083F8F821DA870EEB80008F
:1009700001320F2A83F8F91183F8FB11C3F8001232
:10098000C3F80412C3F80C12416003F11C03E8D150
:100990000FCC6D460FC50FCC0FC594E8030085E85A
:1009A0000300704697E80E0001F0EAFA012386F88A
:1009B000B933306801F007FE00200BB0F0BD012014
:1009C000FBE790F8B833012B10B504460CD0012397
:1009D00080F8B833006801F0EAFD206801F0ACFA55
:1009E000002084F8B80310BD022010BD2DE9F04F9F
:1009F000D0F8009087B00446484601F01EFE0290F1
:100A0000002840F02E81206801F0E9FD002800F068
:100A10002881206801F0E3FD850748BF226820682F
:100A200042BF536903F00203536101F0D8FD10F493
:100A300000250AD0206801F0D6FD09F5306607468A
:100A4000A2460025002F40F00F81206801F0C7FD6D
:100A500041030BD5206801F0CEFD2646039009F531
:100A600010680025039B002B40F03F81206801F0B7
:100A7000B6FD00280DDAD9F8043823F00103C9F8CF
:100A80000438204602F0E2FC2268536903F0004378
:100A90005361206801F0A3FD06050BD5D9F808388D
:100AA000D80702D5204602F0B9FC2268536903F446
:100AB00000635361206801F092FDC10437D509F548
:100AC00000667368206823F001037360102101F051
:100AD000F3FA616809F51063FF220298884240F03A
:100AE00092814FF0FF33B361F36943F00113F36177
:100AF000236B002B00F08F81D6F8843043F00B037A
:100B0000C6F88430736C43F00B037364D9F8003873
:100B1000217C206823F4FE63C9F8003804F56F7265
:100B200001F0AAFD2268536903F4805353612068E1
:100B300001F055FD82041DD5206801F082FD20687A
:100B4000C36823F47053C36001F0DFFA002840F05B
:100B50006B812268E0604FF400736361D36843F4F3
:100B60001053D360204602F048FC2268536903F416
:100B700000535361206801F032FDC3062BD5226873
:100B8000936923F010039361D9F82060C6F34343BF
:100B9000022B06F00F0840F0A88147F6F0731E42C2
:100BA00014D01C2707FB0847C6F30A163246D7F8AD
:100BB0000412484601F0A5FCD7F804323344C7F8C4
:100BC0000432D7F810321E44C7F8106222689369C5
:100BD00043F010039361206801F001FD070707D57A
:100BE000204602F006FC2268536903F008035361B3
:100BF000206801F0F4FCC60208D5E9B2204602F0F4
:100C00002DFC2268536903F480135361206801F0BE
:100C1000E6FC800208D5E9B2204602F01BFC2268FF
:100C2000536903F400135361206801F0D8FC4100BC
:100C300007D5204602F016FC2268536903F0804372
:100C40005361206801F0CBFC42070AD523685D6838
:100C50006B0702D5204602F009FC23685A68154349
:100C60005D6007B0BDE8F08FF80738D55FFA85FB07
:100C70005946206801F0C7FC10F0010F804621D0D2
:100C8000216901239942B3600CD13169DAF800027D
:100C9000C1F31201411ACAF81012DAF8041208441A
:100CA000CAF804025946204602F092FB2169012944
:100CB00008D13DB9D4F80C2222B904F56F7220682E
:100CC00001F0DAFC18F0080F04D0204602F07AFB9D
:100CD0000823B36018F0100F1CBF1023B360013558
:100CE0007F0820360AF11C0AACE6039BDA0758D5C8
:100CF0005FFA85FB5946206801F08FFCC307074661
:100D000020D5D9F834380121A94023EA0103C9F8D4
:100D100034380123C8F808302369012B01BF736CF4
:100D2000326C9B1873645946204602F05AFB2169C5
:100D3000012907D135B9E36C23B904F56F72206836
:100D400001F09AFC380744BF0823C8F80830F906B8
:100D500044BF1023C8F808307A0644BF4023C8F8BF
:100D60000830BB0744BF0223C8F808303F0618D537
:100D700023680493F76C336DFF1A336C9F4228BFCE
:100D80001F46049B03F5106307F1030A03EB4513A9
:100D90004FEA9A0A0593059B9B699BB2534508D875
:100DA0002FB3039B5B08013503931C3608F1200821
:100DB00058E6326DF36C9342F2D9002BF0D0376CC9
:100DC00004989B1A9F4228BF1F46237C00935A46D3
:100DD000BBB2716C01F081FB736C3B447364336D87
:100DE00007F1030A3B444FEA9A0A3365D3E7049BB1
:100DF000012203F5006BD3F83438AA4023EA02033A
:100E0000CBF83430CDE702989A600130C3F808225D
:100E10000290203361E6736943F00B037361336919
:100E200043F00B03336171E60323E3604023636106
:100E300000F0DCFB344B354A03449342236804D86A
:100E4000DA6842F47052DA608CE6314A3149024481
:100E50008A4203D8DA6842F46052F4E7A0F57402DB
:100E60002D49A2F510528A4203D8DA6842F4505252
:100E7000E9E7A0F183722949A2F5E7428A4203D843
:100E8000DA6842F44052DEE7254A264902448A42A3
:100E900003D8DA6842F43052D5E7234A23490244A2
:100EA0008A4203D8DA6842F42052CCE7204A21492A
:100EB00002448A4203D8DA6842F41052C3E7A0F130
:100EC000B7721D49A2F558528A4203D8DA6842F433
:100ED0000052B8E7194A1A4902448A42DA6894BFB4
:100EE00042F4E05242F4C052ADE7062B7FF46EAEFE
:100EF000082204F56F7148461C2701F002FB07FB2E
:100F00000847C6F30A165CE6405327FFFF340C007F
:100F1000401E1BFF3F420F007F4F12001FD61300E1
:100F200060B6E5FE5FE3160000D3CEFE3F771B0000
:100F3000C05BB3FEBF9121001F753800E05459FE1D
:100F4000DF9C410090F8B833012B10B5044609D05E
:100F5000012380F8B833006801F019FB002084F801
:100F6000B80310BD022010BD70B54EB2002E04466D
:100F70004FF01C0501F07F00B5BF05FB004105FBEC
:100F80000141383101F5FC71C0B2002EB8BFC880F4
:100F9000022BCB704FEAD67504BF00230B7108708B
:100FA0004D7094F8B8338A60012B09D0012384F87E
:100FB000B833206801F0C4F8002084F8B80370BD8D
:100FC000022070BD4BB2002B10B54FF01C0204463E
:100FD00001F07F00B5BF02FB004102FB0141383147
:100FE00001F5FC71DB0F08704B7094F8B833012BDE
:100FF00009D0012384F8B833206801F0E0F800201C
:1010000084F8B80310BD022010BD38B501F07F058B
:101010001C2404FB050104FB050401F5FC71C4F864
:101020000C320023C4F80422C4F8103284F8F931D9
:1010300084F8F85103690068012B08BFC4F808223E
:10104000DAB21DB901F0DCF9002038BD01F012F967
:10105000FAE738B501F07F051C2404FB050104FB09
:1010600005043831E364002323650123626484F8B6
:10107000393084F8385003690068012B08BFA26436
:10108000DAB21DB901F0BCF9002038BD01F0F2F868
:10109000FAE738B54BB2002B01F07F054FF01C0288
:1010A000B5BF02FB050102FB0101383101F5FC71FE
:1010B0000122DB0FEDB28A700D704B7090F8B833DF
:1010C000934204460FD080F8B823006801F027FA55
:1010D0002DB904F56F72217C206801F0CDFA002053
:1010E00084F8B80338BD022038BD38B54BB2002BA8
:1010F00005464FF01C0201F07F00B5BF02FB005116
:1011000002FB0151383101F5FC71DB0F00248C70BA
:1011100008704B7095F8B833012B09D0012385F87E
:10112000B833286801F01AFA85F8B843204638BD6C
:10113000022038BD006870B5436A21B943EA024312
:101140008362002070BD846A002503EB14434E1EA9
:10115000ECB2B44205F1010506DB3F3100EB810042
:1011600043EA02434360ECE7403400EB84046468E4
:1011700003EB1443ECE7036800205962704700005A
:10118000F7B5044610B9012003B0F0BD0368D807D5
:101190003BD42368990700F1848023681E0700F17F
:1011A000C68023685D072AD500230193AA4BAB4D67
:1011B0001A6C42F080521A641B6C03F08053019346
:1011C000019B2B6843F480732B60FFF70FFA0646F0
:1011D0002B68DA0540F1CD80A3689F4D012B40F0CC
:1011E000CF802B6F43F001032B67FFF7FFF99A4D78
:1011F000064641F288372B6F9B0740F1E280A269D7
:10120000002A40F0E5800020BEE7934B9A6802F088
:101210000C02042A07D09A6802F00C02082A0AD1AC
:101220005B685A0207D58C4B1B689B03B1D563687A
:10123000002BAED1A7E76368874DB3F5803F11D18E
:101240002B6843F480332B60FFF7D0F9824D0646BC
:101250002B689F039DD4FFF7C9F9801B6428F7D939
:10126000032091E7B3F5A02F04D12B6843F480232A
:101270002B60E5E72A6822F480322A602A6822F48B
:1012800080222A60002BDFD1FFF7B0F906462B68D9
:1012900098037FF57EAFFFF7A9F9801B6428F6D984
:1012A000DEE76D4B9A6812F00C0F07D09A6802F0D7
:1012B0000C02082A12D15B6859020FD4664B1A68D7
:1012C000920703D5E268012A7FF45DAF1A682169AD
:1012D00022F0F80242EAC1021A605EE7E268604B5F
:1012E000B2B101221A60FFF781F95B4D06462B6807
:1012F0009B0707D52B68226923F0F80343EAC20352
:101300002B604AE7FFF772F9801B0228EFD9A7E7A5
:101310001A60FFF76BF9504D06462B689F077FF563
:101320003CAFFFF763F9801B0228F6D998E76269A2
:101330004C4B7AB101221A60FFF758F9464D064628
:101340006B6F98073FF52DAFFFF750F9801B022810
:10135000F6D985E71A60FFF749F93F4D06466B6FEE
:1013600099077FF51EAFFFF741F9801B0228F6D9D8
:1013700076E7FFF73BF9801B02287FF629AF6FE77E
:10138000052B04D12B6F43F004032B6729E72A6F49
:1013900022F001022A672A6F22F004022A67002B3A
:1013A0007FF423AFFFF722F941F2883706462B6F0F
:1013B00098077FF524AFFFF719F9801BB842F6D9DB
:1013C0004EE7FFF713F9801BB8427FF614AF47E7EB
:1013D000214DAB6803F00C03082B3FF4D4AE224E32
:1013E0000023022A33602AD1FFF700F907462B6851
:1013F00099011ED4226AE3691343626A43EA8213A5
:10140000E26A43EA0263A26A134C5208013A43EAD1
:1014100002436B6001233360FFF7E8F80546236859
:101420009A013FF5F0AEFFF7E1F8401B0228F6D92C
:1014300016E7FFF7DBF8C01B0228D8D910E7FFF743
:10144000D5F804462B689B017FF5DDAEFFF7CEF89B
:10145000001B0228F6D903E7003802400070004064
:1014600000004742800E474260004742104908B5DD
:101470008B6803F00C03082B18D14A684B68496845
:101480000C4813F48003C1F3881118BF002302F045
:101490003F02A1FB0001FEF7EBFE054B5B68C3F3C7
:1014A000014301335B00B0FBF3F008BD014808BD08
:1014B000003802400024F4002DE9F0410D460446B6
:1014C00010B90120BDE8F081444B1A6802F00F0208
:1014D0008A4228D321688F072DD4C80740D43F4BB8
:1014E0001A6802F00F02954266D3226851076CD445
:1014F000130707D53A4A2169936823F4604343EA06
:10150000C1039360FFF7B2FF354B364A9B68C3F3C4
:101510000313D35CD840344B18600020FFF730F839
:101520000020BDE8F081CAB21A701B6803F00F03F7
:101530009942C6D1CEE72A4B11F0040F1EBF9A681C
:1015400042F4E0529A600E0742BF9A6842F4604249
:101550009A609A68A06822F0F00202439A60BCE7A1
:1015600062681F4B012A1DD11B6813F4003FA8D0ED
:101570001B4EB36823F003031343B360FFF736F841
:1015800041F288380746B368626803F00C03B3EB96
:10159000820FA4D0FFF72AF8C01B4045F3D90320DF
:1015A000BDE8F081911E01291B6802D813F0007F6D
:1015B000DDE713F0020FDAE7EAB21A701B6803F0F6
:1015C0000F039D427FF47DAF8FE70549E0688B688C
:1015D00023F4E05303438B608AE700BF003C0240E2
:1015E00000380240A7460008E8000020014B1868B8
:1015F000704700BFE8000020044B054A9B68C3F316
:101600008223D35C034A1068D840704700380240F8
:10161000B7460008E8000020044B054A9B68C3F366
:101620004233D35C034A1068D84070470038024008
:10163000B7460008E8000020036A23F001030362B4
:10164000036A426870B584690D6824F07304254309
:101650008C6823F0020323430C4CA04209D004F50C
:101660008064A04205D042604A688561426303629B
:1016700070BDCC688E6923F0080323434C6922F4C3
:101680004072344323F004032243ECE7000001409E
:10169000036A23F480730362036A426870B5C46905
:1016A0000D6824F0730425438C6823F4007343EA27
:1016B00004230E4CA04209D004F58064A04205D05A
:1016C00042604A68C561C263036270BDCC688E69BE
:1016D00023F4006343EA04234C6922F44052344368
:1016E00023F4806342EA0412EAE700BF00000140ED
:1016F000036A23F48053036230B5046A4368C26905
:101700000D6822F4E64242EA05228D6824F4005472
:1017100044EA0534094DA84209D005F58065A84280
:1017200005D043604B68C2610364046230BD4D69FB
:1017300023F4804343EA8513F3E700BF0000014030
:10174000704790F83830012B70B54FF002031CD071
:1017500080F839300368012280F838209A6822F432
:101760007F4222F077029A600A68402A79D019D81D
:10177000102A00F093800AD8002A00F08980012303
:1017800080F83930002380F83830184670BD202AA0
:1017900000F08A80302AF2D19A6822F0700242F07A
:1017A000370236E0702A36D01BD8502A42D0602A41
:1017B000E5D11C6A4D68CE6824F010041C6299695A
:1017C0001A6A21F4704122F0A00242EA051241EAAD
:1017D000063199611A629A6822F0700242F067023B
:1017E00017E0B2F5805F11D0B2F5005FC7D18A680B
:1017F0004D689C68C9682A4324F47F4442EA012268
:1018000022439A609A6842F4804202E09A6822F089
:1018100007029A60B3E78A684D689C68C9682A43E2
:1018200024F47F4442EA012222439A609A6842F0FB
:101830007702EEE74C68CE68196A1D6A25F001054B
:101840001D629A6921F00A0122F0F00242EA0612B2
:1018500021439A6119629A6822F0700242F057029D
:10186000D7E74C68CE68196A1D6A25F001051D622C
:101870009A6921F00A0122F0F00242EA061221439D
:101880009A6119629A6822F0700242F04702C0E73A
:101890009A6822F0700242F00702BAE79A6822F0D2
:1018A000700242F01702B4E79A6822F0700242F028
:1018B0002702AEE7704770477047704703681A69A0
:1018C000910710B504460ED5DA6892070BD56FF074
:1018D00002021A619B6901229B07027677D0FFF70B
:1018E000EAFF0023237623681A69500710D5DA68C7
:1018F00051070DD56FF004021A619B69022213F49F
:10190000407F2276204668D0FFF7D5FF002323765C
:1019100023681A6912070FD5DA6810070CD56FF023
:1019200008021A61DB6904229907227620465AD000
:10193000FFF7C1FF0023237623681A69D20610D56A
:10194000DA68D0060DD56FF010021A61DB69082243
:1019500013F4407F227620464BD0FFF7ACFF0023E4
:10196000237623681A69D10708D5DA68D20705D526
:101970006FF001021A61204601F0AEFB23681A697C
:10198000100608D5DA68110605D56FF080021A61D5
:10199000204600F04EF923681A69520608D5DA6825
:1019A000500605D56FF040021A612046FFF785FF0B
:1019B00023681A69910622D5DA6892061FD56FF05E
:1019C000200220461A61BDE8104000F031B9FFF74F
:1019D00071FF2046FFF770FF83E7FFF76BFF20469C
:1019E000FFF76AFF92E7FFF765FF2046FFF764FF06
:1019F000A0E7FFF75FFF2046FFF75EFFAFE710BDF0
:101A00002E4A0368904212D0B0F1804F0FD0A2F559
:101A10007C4290420BD002F58062904207D002F5E2
:101A20008062904203D002F5784290421DD14A680C
:101A300023F070031343214A904204D1CA6823F46F
:101A40004073134328E0B0F1804FF7D01C4A904216
:101A5000F4D002F580629042F0D002F580629042AC
:101A6000ECD002F578429042E8D0164A9042E5D098
:101A700002F580629042E1D002F580629042DDD0B2
:101A8000A2F598329042D9D002F580629042D5D02A
:101A900002F580629042D1D003608B68C3620B680C
:101AA0008362064B984206D003F58063984202D0C9
:101AB0000123436170470B690363F9E700000140AC
:101AC000000400400040014010B50446A0B190F869
:101AD000393003F0FF021BB980F8382001F0C0FB59
:101AE000022384F839302068211DFFF789FF012384
:101AF00084F83930002010BD012010BD10B5044617
:101B0000A0B190F8393003F0FF021BB980F83820FB
:101B1000FFF716FE022384F839302068211DFFF7F5
:101B20006FFF012384F83930002010BD012010BD63
:101B3000036A23F010030362036A426870B5846984
:101B40000D6824F4E64444EA05258C6823F020035C
:101B500043EA04130D4CA04209D004F58064A0426E
:101B600005D042604A6885618263036270BDCC68BB
:101B70008E6923F0800343EA04134C6922F4406227
:101B8000344323F0400342EA8402EAE700000140C4
:101B900038B590F83830012B04464FF0020018D0C9
:101BA000012384F8383084F839001D460C2A0BD8FC
:101BB000DFE802F0070A0A0A100A0A0A140A0A0AE7
:101BC00018002068FFF738FD002084F8395084F8A9
:101BD000380038BD2068FFF7ABFFF5E72068FFF756
:101BE00057FDF1E72068FFF783FDEDE790F8383007
:101BF000012B10B54FF0020318D080F8393003687C
:101C00000C685A68496822F070025A605A68224388
:101C10005A609A6822F080029A609A680A439A6031
:101C2000012380F83930002380F83830184610BD81
:101C3000704770472DE9F0470668C2683369C1698B
:101C400023F4405313433361044683680069F26808
:101C50000343606922F41642034322F00C020B4353
:101C60001343F3607369A26923F440731343B1F51E
:101C7000004F73617A4B7CD19E4203D003F58063A1
:101C80009E4244D1FFF7C8FC192505FB00F36068AC
:101C90004FF064094000B3FBF0F3B3FBF9F34FEAF4
:101CA0000318FFF7B9FC636868435B00B0FBF3F708
:101CB000FFF7B2FC636868435B00B0FBF3F3B3FB70
:101CC000F9F309FB1373DB003233B3FBF9F35B0069
:101CD00003F4F877FFF7A0FC626868435200B0FB9A
:101CE000F2FAFFF799FC636868435B00B0FBF3F31B
:101CF000B3FBF9F309FB13A3DB003233B3FBF9F3B6
:101D000003F0070343443B44B360BDE8F087FFF7AB
:101D100073FC192505FB00F360684FF0640940006F
:101D2000B3FBF0F3B3FBF9F34FEA0318FFF764FCDE
:101D3000636868435B00B0FBF3F7FFF75DFC636823
:101D400068435B00B0FBF3F3B3FBF9F309FB1373D8
:101D5000DB003233B3FBF9F35B0003F4F877FFF7F2
:101D60004BFC626868435200B0FBF2FAFFF744FC98
:101D7000B9E79E4202D03B4B9E4240D1FFF74CFC5C
:101D8000676819254FF0640905FB00F3BF00B3FB3A
:101D9000F7F3B3FBF9F31F01FFF73EFC63686843F9
:101DA0009B00B0FBF3F8FFF737FC636868439B00C8
:101DB000B0FBF3F3B3FBF9F309FB13831B013233DD
:101DC000B3FBF9F303F0F008FFF726FC6268684301
:101DD0009200B0FBF2FAFFF71FFC636868439B00B8
:101DE000B0FBF3F3B3FBF9F309FB13A31B0132338D
:101DF000B3FBF9F303F00F0343EA080383E7FFF7AC
:101E0000FBFB676819254FF0640905FB00F3BF0071
:101E1000B3FBF7F3B3FBF9F31F01FFF7EDFB6368C7
:101E200068439B00B0FBF3F8FFF7E6FB6368684389
:101E30009B00B0FBF3F3B3FBF9F309FB13831B0126
:101E40003233B3FBF9F303F0F008FFF7D5FB626818
:101E500068439200B0FBF2FAFFF7CEFBBDE700BF8C
:101E6000001001400014014010B5044640B390F842
:101E7000393003F0FF021BB980F8382001F026FA50
:101E80002268242384F83930D36823F40053D360C4
:101E90002046FFF7CFFE23681A6922F490421A61A8
:101EA0005A6922F02A025A61DA6842F40052DA6072
:101EB00000202023E06384F8393084F83A3010BDE4
:101EC000012010BD84B038B505AD85E80E000A9B31
:101ED000012B044626D1836B23F480338363C368CC
:101EE00023F4840323F04003C360C36823F4401346
:101EF000C360119B012B02BFC36843F48013C3600E
:101F000000F0DEFB089B012B07D1A36843F006031A
:101F1000A360A36843F02003A360BDE8384000201D
:101F200004B07047C36843F04003C36000F0C8FBCF
:101F30004FF48033A363E5E7836843F001038360D4
:101F400000207047836823F00103836000207047FE
:101F500008B5C368012923F0C043C36008D1C36832
:101F600043F00053C3603220FEF746FB002008BD5B
:101F70000029F8D1C36843F08043C360F3E7000051
:101F800084B02DE9F041044607A880E80E00119EB8
:101F90000A9FA36B8846A6B943F40013A3630023EA
:101FA000C4F8003ED4F80038C4F800380C9B012B6C
:101FB00004F500655ED1099939B9204600F09EF814
:101FC00007E043F40023A363E9E71946204600F045
:101FD00095F81021204600F06FF8204600F07EF8BA
:101FE00000234FF0FF322B6119466B614FF0904098
:101FF000AA614FF0FF0EEB6104F5106243453BD13F
:10200000002104F5306208464FF0904E4FF0FF0C6F
:102010008B423ED12B69012F23F480732B6108D1B1
:10202000234B2B632B6B43F4803343F003032B636D
:102030002B6B0023A3616FF0804363611FB9A36919
:1020400043F01003A361A2691A4B1343A3610D9BD4
:102050001BB1A36943F00803A361012E01BFA3696B
:1020600043F0804343F00403A361BDE8F041002046
:1020700004B070470321A0E7D2F800C0BCF1000F04
:10208000B4BF1060116001331161C2F808E0203262
:10209000B4E7D2F80080B8F1000FB4BFC2F800E096
:1020A000106001311061C2F808C02032B0E700BFF3
:1020B0000001800000383C80890141F02001064A7F
:1020C0000161013A05D0036913F02003F9D11846E4
:1020D00070470320704700BF410D03001023064ADC
:1020E0000361013A05D0036913F01003F9D11846D2
:1020F00070470320704700BF410D0300D0F800383F
:102100001943C0F800180020704700F50062D0F8AD
:10211000080810F0060012D0936803F00603022BA3
:102120000CD0936803F00603062B07D0936803F0E6
:102130000603042B14BF00200220704703207047C1
:1021400030B54B780C78D0F81C5800F50062012BA4
:102150001BD1A3409BB22B4300F51060D36100EB71
:1021600044131A6812040ED48A68C8781D68C2F332
:102170000A0242F0805242F4004242EA804040EAC1
:10218000845028431860002030BD4FF48033A340B2
:1021900000F530602B4300EB4410D36103681B044F
:1021A000F1D48B68C9780268C3F30A0343F0805303
:1021B00043F4004343EA814313430360E3E700F041
:1021C00001B8000070B54B78012B0E460546097822
:1021D0004FF0200326D100F5106213FB01231A688B
:1021E00022F400421A604FF000621A604FF0804201
:1021F0001A601F4A013A01D1032070BD9C6814F097
:102200008044F7D110212846FFF756FF3178D5F8E2
:102210001C2801238B409BB222EA0303C5F81C381B
:10222000204670BD00F5306213FB01231A6822F4CA
:1022300000421A604FF000621A604FF080421A604C
:102240000B4A013AD8D0986810F01000F9D1D5F8AF
:10225000043843F48063C5F80438D5F81C384FF4CB
:1022600080328A4023EA0203C5F81C3870BD00BFE3
:10227000410D0300F7B54B780C78012B4B6977D1F2
:10228000202600F5106516FB04542669002B38D172
:1022900026F0FF5626F4C0162661266946F400266D
:1022A00026612669F60CF6042661012A50D10C78C5
:1022B0000E6905EB44146661CE78012E0FD1D0F87B
:1022C00008480F7814F4807F4FF0200414FB075463
:1022D00027680CBF47F0005747F0805727600F78FA
:1022E00005EB4715012E2C6844F004442C6005D101
:1022F00000929BB23A46C96800F0EFF8002003B0A4
:10230000F0BDF60CF604266126698F6826F0FF56AC
:1023100026F4C0162661DE19013EB6FBF7F7374EEC
:10232000D4F810E006EAC74646EA0E062661276999
:10233000C3F312063E432661CE78012E5AD1266998
:1023400026F0C0462661266946F000562661ACE7B5
:10235000CE78012EB3D0002BAED091F800E0D0F8AB
:102360003478012404FA0EF43C43C0F83448A3E75F
:1023700000F5306505EB44142569ED0CED0425618D
:10238000256925F0FF5525F4C01525618D68FBB939
:102390002369C5F312051D432561236943F4002316
:1023A0002361012A04BFCB686361CB78012B0AD17A
:1023B000D0F8083813F4807F23680CBF43F0005333
:1023C00043F080532360236843F00443236095E780
:1023D0000A4E27692B44013BB3FBF5F306EAC346DB
:1023E0003E4326619BB226695D43C5F31205354322
:1023F0002561D6E7012AAED159E700BF0000F81FDA
:102400004B78012B70B50B784D6943D1202400F532
:10241000106614FB03631C69CDB924F0FF5424F447
:10242000C0141C611C6944F400241C611C69E40C88
:10243000E4041C610D7806EB4513012A1C6844F086
:1024400004441C601BD10A695A61002070BDE40C71
:10245000E4041C611C6924F0FF5424F4C0141C61C2
:102460008C68A54288BF4C611C6944F400241C613F
:102470004C691D69C4F312042C431C61DAE74B69F3
:10248000002BE2D0D0F834280123AB401343C0F82E
:102490003438DAE700F5306000EB43100369DB0CF9
:1024A000DB040361036923F0FF5323F4C0130361CA
:1024B0008B6805B14B61046944F40024046104692C
:1024C000C3F312032343012A036104BFCB684361B2
:1024D000036843F004430360B7E710B59DF8084074
:1024E0004CB9033300F5805023F0030300EB0232B4
:1024F0000B44994201D1002010BD51F8040B10602B
:10250000F7E7033222F003020A4400F580509142BB
:1025100001D108467047036841F8043BF7E74B7860
:102520000A78012B4FF020030BD100F5106013FB4C
:1025300002000368002B0BDB036823F08043036079
:1025400006E000F5306013FB02000368002BF3DAAD
:10255000036843F400130360002070474B780A7847
:10256000012B0CBF00F5106000F53060202313FB39
:102570000200036823F400130360CB78023B012BB5
:102580009EBF036843F08053036000207047D0F87B
:10259000003823F4FE63C0F80038D0F80038090191
:1025A00001F4FE611943C0F800180020704708B517
:1025B000D0F8043823F00203C0F804380320FEF7F3
:1025C0001BF8002008BD08B5D0F8043843F002031A
:1025D000C0F804380320FEF70FF8002008BD426958
:1025E000806910407047D0F8183800F50060C06965
:1025F0001840000C7047D0F8183800F50060C0692A
:10260000184080B2704700F5306303EB411100F5CC
:1026100000608A6840691040704710B5D0F81048D3
:10262000D0F8343800EB4110CB4000F51060DB01EE
:102630008068DBB22343184010BD406900F0010000
:102640007047D0F8003923F4FF6323F00703C0F884
:10265000003900F500639A6802F00602042A02BFFE
:10266000D0F8002942F00302C0F800295A6842F469
:1026700080725A600020704710B50024C0F8104BDB
:10268000D0F8104B44F40024C0F8104BD0F8104B95
:1026900044F01804C0F8104BD0F8104B012900F595
:1026A000306344F0C04408BF4FF08023C0F8104BA3
:1026B00004BFC0F8142BC0F8003B002010BD000080
:1026C0000A4B013B01D1032070470269002AF8DA66
:1026D0000369064A43F001030361013AF3D0036939
:1026E00013F00103F9D11846704700BF410D0300F4
:1026F00008B550B90D4801F0D5F80D4801F0D2F8F1
:102700000A2001F0E7F8022008BDD0F8143213B116
:102710000023C0F8143209B1C0F81012012380F868
:10272000FC31027000F0A6FE002008BD74460008CF
:102730007C46000808B519B1C0F81412002008BD85
:10274000054801F0AFF8054801F0ACF80A2001F0A7
:10275000C1F8022008BD00BF744600089246000878
:1027600008B500F0BDFE002008BD08B5D0F8143251
:102770000BB9022008BD1B6898470028F9D108BD95
:1027800008B5D0F814325B689847002008BD38B50A
:10279000044600F50275284600F075FA012394F806
:1027A0000812C4F8F431B4F80E32C4F8F83101F06C
:1027B0001F03012B0ED007D3022B10D001F0800194
:1027C000204600F0B9FE03E02946204600F0E6F876
:1027D000002038BD2946204600F0DAF9F8E72946FE
:1027E000204600F0EDF9F3E738B50446154611BB75
:1027F000D0F8F431032B0FD1D0F80C31D0F81021E0
:1028000093420BD99B1A9A4228BF1A46C0F80C3142
:1028100092B2294600F03BFB002038BDD0F81432BC
:102820001B6923B190F8FC21032A00D19847204668
:1028300000F035FBF0E7D0F814329B69002BEBD0A9
:1028400090F8FC21032AE7D19847E5E770B51346D5
:1028500004460E4600293DD1D0F8F421022A0FD1BA
:10286000C569026A954214D9AA1AC261194692B280
:1028700000F005FB33461A461946204600F0A8FE34
:1028800094F80032012B02D1002384F8003200209A
:1028900070BD8369B3FBF2F502FB153565B99A4249
:1028A0000AD8D0F8F821934206D22A4600F0E7FA77
:1028B000C4F8F8512B46DEE7D4F81432DB682BB1AC
:1028C00094F8FC21032A01D120469847204600F0C5
:1028D000F1FAD5E7D0F814325B69002BD7D090F825
:1028E000FC21032AD3D19847D1E738B5002204460A
:1028F00011464025402300F001FE2B46C4F810513C
:1029000000228021204600F0F9FD012384F8FC31EB
:10291000D4F8183225622BB1D4F8143221795B68CF
:1029200020469847002038BD01740020704790F879
:10293000FC3180F8FD31042380F8FC310020704721
:1029400090F8FD3180F8FC310020704708B590F810
:10295000FC21032A04D1D0F81432DB6903B1984773
:10296000002008BD002070470020704700207047FD
:1029700008B5012280F8FC21D0F8142201795268B0
:102980009047002008BD10B58021044600F0D4FD1A
:1029900020460021BDE8104000F0CEBD37B54B7891
:1029A00004460D46092B79D8DFE813F0C900E5008D
:1029B0007800D90078006D000A007800B9008D0019
:1029C0004B881A0A013A062A68D8DFE802F0041C8C
:1029D000296767495200D0F810321B68207C0DF13E
:1029E00006019847BDF80620002A67D0EB88002B27
:1029F00064D09A4228BF1A46ADF806200146204608
:102A000000F030FA5AE0027CD0F8143232B99B6AF6
:102A10000DF10600984702234370E3E7DB6AF7E70E
:102A2000DBB2052B3AD8DFE803F003070B0F1317CF
:102A3000D0F810325B68D1E7D0F810329B68CDE750
:102A4000D0F81032DB68C9E7D0F810321B69C5E74F
:102A5000D0F810325B69C1E7D0F810329B69BDE74E
:102A6000037CDBB9D0F814320DF106005B6B98479C
:102A7000B8E7037C93B9D0F814320DF106001B6B54
:102A800098470723C8E78B8843B9CB8833B990F8B8
:102A9000FC318D78032B05F07F0503D12046FFF72D
:102AA00072FF0BE080F8FE51294600F075FD2046CC
:102AB00000F0F5F92DB1022384F8FC31002003B0B9
:102AC00030BD0123F8E78978304D01292970E5D818
:102AD00090F8FC31022B0CD0032BDFD1B1B90223CB
:102AE00080F8FC314160FFF74BFE204600F0D7F93B
:102AF000E4E70029F9D001210323416080F8FC318B
:102B00002046FFF732FE0228EFD1C7E741680129CE
:102B1000EBD0C9B2FFF734FE29786160F0E7CA88CC
:102B2000012ABBD190F8FC31022B03D0032BB5D185
:102B3000011D64E70146002341F8083F5FE790F874
:102B4000FC31023B012BA9D80023C360D0F804322A
:102B50000BB10223C360022204F10C014FE74B8842
:102B6000012BABD1C4F80432D4F8143229469B6847
:102B700020469847B9E790F8FC31023B012B8DD8ED
:102B80004B88012B9AD10023ECE700BFA001002065
:102B900038B590F8FC31032B04460D460DD10B7966
:102BA000012B0AD8D0F814329B689847EB8813B9E8
:102BB000204600F074F9002038BDFFF7E4FEFAE784
:102BC00070B50A788E8802F06002202A04460D460D
:102BD000F3B205D1D0F814329B689847002070BD3D
:102BE0004A78012A1CD02AD3032AF7D190F8FC2175
:102BF000022A40D0032A02D0FFF7C5FEEEE74A883A
:102C000022B95E0602D0194600F096FCD4F81432C0
:102C100029469B6820469847204600F040F9DDE7AA
:102C200090F8FC21022A26D0032AE5D14A88002AFE
:102C3000D4D15906F0D0194600F08CFCE6E790F8A4
:102C4000FC21022A17D0032AD6D103F07F0516F003
:102C5000800F00EB0515194614BF143505F5827574
:102C600000F086FC68B101232B6002222946204631
:102C700000F0F8F8B2E75A06B0D0194600F05CFC54
:102C8000ACE72860F1E70B7803704B784370CA78A3
:102C90008B7803EB022343804A790B7903EB022301
:102CA0008380CA798B7903EB0223C380704710B508
:102CB0008021044600F040FC20460021BDE8104081
:102CC00000F03ABC30B588B105462B1A15F8014B17
:102CD000DBB2002CF9D15B00023313800B700323AD
:102CE0004B700138022310F8015F05B930BD5A1C42
:102CF000D2B2CD540233DBB28C54F4E729230380E3
:102D000000487047A4000020D0F818320020187343
:102D1000704700000A23038000487047DC00002051
:102D200008B5054AD0F820024FF4D3730121FEF70D
:102D30006CF9002008BD00BFA101002038B50C7857
:102D4000D0F8183214F06004054623D0202C0CD1A2
:102D50004A78023A092A17D8DFE802F01309161652
:102D6000161616160F058A781A60002410E0012244
:102D70001946284600F076F8F7E74A88120A5A60A2
:102D8000F3E70122191DF4E72846FFF790FF02241C
:102D9000204638BD4A780A2A18D00B2A1CD0062AA9
:102DA000F6D14B881B0A222B05D1CA880C496A2A06
:102DB00028BF6A22DDE7212B05D1CA880949092AE3
:102DC00028BF0922D5E721462246D2E7012203F196
:102DD000080100F047F8DBE78A789A60D8E700BF7F
:102DE00000000020D000002010B58121044600F032
:102DF00095FB0121204600F091FBD4F8180220B188
:102E000000F09CFC0023C4F81832002010BD10B55F
:102E1000052304460322812100F070FB4023032296
:102E20000121204600F06AFB102000F07FFCC4F86E
:102E3000180218B100230373184610BD012010BDFD
:102E400010B5134690F8FC21032A09D1D0F8184296
:102E5000227B2AB9012222730A46812100F0AAFBB3
:102E6000002010BD10B513460222C0F8F421836182
:102E70000A46C361002100F09DFB002010BD08B58B
:102E800013460A46002100F095FB002008BD08B556
:102E900013460A46002100F09BFB002008BD08B540
:102EA0000423C0F8F43100231A46194600F082FBCF
:102EB000002008BD08B50523C0F8F43100231A46E8
:102EC000194600F085FB002008BD0000F0B58BB06E
:102ED000274B284F284D002401941A6B42F004021E
:102EE0001A631A6B02F004020192019A02941A6B9F
:102EF00042F080021A631A6B02F080020292029A78
:102F000003941A6B42F001021A631A6B02F0010279
:102F10000392039A04941A6B42F002021A631B6B29
:102F200003F002030493224638464FF44051049BB9
:102F3000FDF7D2FC224628464FF48071FDF7CCFC09
:102F400001264FF4405305A9384605930696079489
:102F50000894FDF7DBFB4FF4807305A92846059321
:102F6000069607940894FDF7D1FB0BB0F0BD00BFA7
:102F700000380240000802400000024010B594B042
:102F8000284B002101911A6C42F080521A641B6C8C
:102F900003F080530193019B234B02911A6842F482
:102FA00080421A601B6803F480430293029B012352
:102FB00008934FF4803309934FF480030F93082351
:102FC000109378230224119308A805230E941294D9
:102FD0001393FEF7D5F800B1FEE70F2303934FF4E8
:102FE000A0530590069303214FF4805303A8049443
:102FF0000793FEF761FA044600B1FEE7FEF7F6FA22
:103000004FF47A73B0FBF3F0FDF758FB0420FDF7A3
:103010006BFB224621464FF0FF30FDF70FFB14B04B
:1030200010BD00BF003802400070004070B50A4C6F
:1030300005460E46012201462046FDF74DFC31466D
:103040000648FDF743FC0022064629462046FDF7C8
:1030500043FC304670BD00BF000802400000024043
:1030600007B5022300248DF804308DF80540FDF7E4
:103070009BFAFFF783FFFFF729FF00F007F900F045
:103080004FF900F0A3F8224621461C20FDF7D6FA9E
:103090001C20FDF707FB0F4C08210120FFF7C6FF9E
:1030A0000028F9D0802301A9022220468DF805309E
:1030B000FFF7C6FE1E20FDF79FFA0023022201A99A
:1030C00020468DF80530FFF7BBFE1E20FDF794FA71
:1030D000E2E700BFD40300204FF400510148FDF7A0
:1030E00000BC00BF00080240FEE708B50320FDF762
:1030F00093FA002211466FF00B00FDF79FFA0022B1
:1031000011466FF00A00FDF799FA002211466FF0A0
:103110000900FDF793FA002211466FF00400FDF755
:103120008DFA002211466FF00300FDF787FA0022A6
:1031300011466FF00100FDF781FA002211464FF0B1
:10314000FF30BDE80840FDF779BA7047FEE7FEE7BB
:10315000FEE7FEE770477047704708B5FDF73EFA97
:10316000BDE80840FDF7CDBA0148FEF7A7BB00BF98
:10317000580300200148FDF739BC00BFF8050020C6
:103180000F49D1F8883043F47003C1F888300D4BF3
:103190001A68002042F001021A6098601A6822F052
:1031A000847222F480321A60074A5A601A6822F444
:1031B00080221A60D8604FF000638B60704700BFB8
:1031C00000ED00E0003802401030002410B5224825
:1031D0004FF080420A2380E80C008EB0002342F2B8
:1031E0000F728360C2600361FEF76EFC18B1492163
:1031F0001A48FFF779FF0EA94FF4805341F82C3D90
:103200001548FEF79EFA18B14F211448FFF76CFFDE
:103210001148FEF773FC18B154211048FFF764FF02
:10322000002401A90C4801940294FEF7DFFC18B1B8
:103230005B210A48FFF758FF002207A906480794B8
:10324000089409940B94FEF7A3FC18B16421034879
:10325000FFF74AFF0EB010BD58030020BF4600081C
:103260000368B3F1804F82B00BD100230193064B6A
:103270001A6C42F001021A641B6C03F00103019303
:10328000019B02B0704700BF0038024008B50C48EF
:103290000C4B4FF4E13E80E808400C220023836091
:1032A000C360036142618361C361FEF7DDFD28B144
:1032B0004C210548BDE80840FFF716BF08BD00BF18
:1032C0009403002000480040CC4600087FB5026807
:1032D000104B9A421AD1002300930F4B0F481A6CDF
:1032E00042F480221A641B6C03F480230093009B39
:1032F0004FF44063019302230293012303930323BA
:10330000049301A907230593FDF700FA07B05DF8C0
:1033100004FB00BF004800400038024000080240A3
:1033200010B5074C074900222046FFF7E1F9204677
:103330000549FFF7FFF92046BDE81040FFF710BA36
:10334000D4030020EC0000206C00002010B50368BE
:10335000B3F1A04F86B02ED100244FF4007301A921
:103360001648019302940394FDF7D0F94FF4C0532B
:103370000193022302930323049301A90A230F4814
:1033800005930394FDF7C2F90D4B5A6B42F080028E
:103390005A6300945A6C42F480425A645B6C03F4A2
:1033A00080430093432022462146009BFDF746F9C7
:1033B0004320FDF777F906B010BD00BF00000240C2
:1033C0000038024000F56F71D0F8EC03FFF7DFB969
:1033D0001C2303FB0103D0F8EC03D3F80422FFF70E
:1033E00003BA1C2303FB0103D0F8EC035A6CFFF76C
:1033F0002DBAD0F8EC03FFF7A9BA10B5C16804469E
:10340000003118BF0121D0F8EC03FFF78DFAD4F892
:10341000EC03BDE81040FFF768BA000010B50446A1
:10342000D0F8EC03FFF783FA2268D2F8003E43F0AD
:103430000103C2F8003E236A23B1034A136943F033
:103440000603136110BD00BF00ED00E0D0F8EC03EF
:10345000FFF776BAD0F8EC03FFF786BAD0F8EC03A2
:10346000FFF780BAD0F8EC03FFF780BAD0F8EC038E
:10347000FFF77EBA08B502785ABB174B0421C3F890
:10348000EC03C0F820324FF0A04083E80300022193
:10349000D9609961184601211A615A61DA611A628C
:1034A0005A62D9621A63FDF720FA20B140F23B114B
:1034B0000A48FFF719FE80210748FDF75CFE40220D
:1034C00000210548FDF736FE802201210248FDF764
:1034D00031FE002008BD00BFF8050020DF460008CF
:1034E00008B5D0F82002FDF76CFA03289ABF024B0A
:1034F000185C022008BD00BFDB46000810B51C4662
:10350000D0F8200213462246FDF72EFD03289ABF6D
:10351000014B185C022010BDDB46000808B5D0F84E
:103520002002FDF74FFD03289ABF024B185C0220D2
:1035300008BD00BFDB46000808B5D0F82002FDF743
:10354000A8FD03289ABF024B185C022008BD00BFEB
:10355000DB46000808B5D0F82002FDF7C6FD0328B9
:103560009ABF024B185C022008BD00BFDB46000872
:1035700011F0800FD0F820324FF01C021BBF01F079
:103580007F0102FB013102FB013191F83A0008BFD3
:1035900091F8FA017047000008B5D0F82002FDF755
:1035A000D1FC03289ABF024B185C022008BD00BF63
:1035B000DB46000808B5D0F82002FDF74AFD0328D5
:1035C0009ABF024B185C022008BD00BFDB46000812
:1035D00008B5D0F82002FDF718FD03289ABF024B6A
:1035E000185C022008BD00BFDB46000812230B80D8
:1035F000004870470801002004230B8000487047F2
:103600001C01002010B5044C04480A462146FFF76F
:1036100059FB204610BD00BFE809002015470008EF
:1036200010B5044C04480A462146FFF74BFB2046E0
:1036300010BD00BFE80900202147000810B5044C68
:1036400004480A462146FFF73DFB204610BD00BF57
:10365000E80900202E47000810B5044C04480A462B
:103660002146FFF72FFB204610BD00BFE8090020D0
:10367000F246000810B5044C04480A462146FFF7FC
:1036800021FB204610BD00BFE809002002470008CA
:10369000DFF834D0002103E00C4B5B584350043179
:1036A0000B480C4B42189A42F6D30B4A02E0002317
:1036B00042F8043B094B9A42F9D3FFF761FD00F051
:1036C00011F8FFF7CDFC704700000220E447000826
:1036D000000000208401002084010020EC0B002069
:1036E000FEE7000070B50D4E0D4CA41BA410002584
:1036F000A54209D10B4E0C4C00F0B0FFA41BA41046
:103700000025A54205D170BD56F8253098470135F2
:10371000EEE756F8253098470135F2E7DC47000818
:10372000DC470008DC470008E0470008024B014680
:10373000186800F059B800BF20010020024B014674
:10374000186800F003B800BF2001002038B5054616
:10375000002945D051F8043C0C1F002BB8BFE418D9
:1037600000F0AEF91F4A1368104633B96360146065
:103770002846BDE8384000F0A4B9A3420CD921681E
:103780006218934204BF1A685B68636004BF5218F2
:1037900022600460ECE713465A680AB1A242FAD9E3
:1037A00019685818A0420BD1206801445818824269
:1037B0001960DDD1106852685A6001441960D7E77A
:1037C00002D90C232B60D3E7206821188A4204BF5A
:1037D00011685268626004BF091821605C60C7E725
:1037E00038BD00BF4803002070B5CD1C25F003058F
:1037F00008350C2D38BF0C25002D064601DBA942EB
:1038000003D90C233360002070BD00F059F9234A1E
:103810001468214691B9224C23681BB9304600F048
:103820006DF820602946304600F068F8431C26D128
:103830000C233360304600F044F9E4E70B685B1B6F
:103840001AD40B2B0FD90B60CD50CC18304600F09A
:1038500038F904F10B00231D20F00700C31A1BD018
:103860005A42E25070BD8C420DBF63684B68636082
:10387000136018BF0C46E9E70C464968CAE7C41C48
:1038800024F00304A04205D0211A304600F036F897
:103890000130CDD02560D9E770BD00BF48030020BE
:1038A0004C0300200FB40A4B13B51C6824B1A36964
:1038B00013B9204600F072F805AB049AA168019391
:1038C000204600F029F902B0BDE8104004B070476E
:1038D0002001002038B5084B1C68054624B1A369B7
:1038E00013B9204600F05AF8A26829462046BDE8E0
:1038F000384000F0BDBB00BF2001002038B5064CA9
:10390000002305460846236000F092FE431C02D1C6
:10391000236803B12B6038BDE80B0020014900F09B
:10392000A9B800BF39440008002310B5044603605D
:103930004360836081814366C28103614361836127
:10394000194608225C3000F0B3F8054B6362054B62
:10395000A362054BE362054B2462236310BD00BFE5
:10396000DD400008FF400008374100085B410008C7
:1039700070B54A1E682555430E4605F17401FFF7E0
:1039800033FF044640B1002180E842000C30A060C3
:1039900005F1680200F08CF8204670BD836910B50F
:1039A000044633BB8364C3640365124B124A1B682D
:1039B0008262984204BF0123836100F01FF86060B7
:1039C000204600F01BF8A060204600F017F8002207
:1039D000E06004216068FFF7A7FF01220921A068C9
:1039E000FFF7A2FF02221221E068FFF79DFF0123EB
:1039F000A36110BD9C4700081D390008F8B51C4B99
:103A00001E68B369074613B93046FFF7C7FF48364B
:103A1000B4687368013B03D5336833B13668F7E7A0
:103A2000B4F90C506DB16834F4E704213846FFF75F
:103A30009FFF30600028F1D10C233B6004462046F4
:103A4000F8BD4FF6FF73E3810123A381656625600E
:103A5000A560656025616561A5610822294604F1BC
:103A60005C0000F025F86563A563A564E564E6E7FE
:103A70009C4700082DE9F8438046894600F1480438
:103A8000002614B93046BDE8F883A5686768013F91
:103A900001D52468F5E7AB89012B07D9B5F90E30BC
:103AA000013303D029464046C84706436835EEE750
:103AB00002440346934200D1704703F8011BF9E723
:103AC000704770479368013B002B10B4936009DA8C
:103AD0009469A34202DBCBB20A2B03D15DF8044BFD
:103AE00000F040BB1368581C10601970C8B25DF834
:103AF000044B7047F8B506460F461446D518AC423D
:103B000001D1002007E03A4614F8011B3046FFF7C8
:103B1000D9FF431CF3D1F8BD2DE9F04F9DB00C4601
:103B200017460393064618B183690BB9FFF736FFB2
:103B30007C4B9C4257D17468A38918075DD52369D3
:103B4000002B5AD00023099320238DF829303023ED
:103B50008DF82A304FF0010BB846454615F8013B69
:103B6000002B55D1B8EB070A0BD053463A462146F5
:103B70003046FFF7BFFF013000F0C480099B53447B
:103B8000099398F80030002B00F0BC8000234FF020
:103B9000FF3204930793059206938DF853301A93DE
:103BA000052229786048FCF713FB05F10108049B06
:103BB000002831D1D90644BF20228DF853201A079E
:103BC00044BF2B228DF853202A782A2A2CD0079A1A
:103BD00000210A20A846013598F80030303B092B17
:103BE0006DD971B326E0514B9C4201D1B468A3E773
:103BF0004F4B9C4208BFF4689EE72146304600F0D8
:103C000015FB00289ED04FF0FF301DB0BDE8F08FAF
:103C1000252BA7D0A846A0E7434A801A0BFA00F04C
:103C2000184304904546BBE7039A111D126803919F
:103C3000002A01DB079204E0524243F0020307929C
:103C4000049398F800302E2B10D198F801302A2BCD
:103C500008F1010137D1039B1A1D1B680392002B49
:103C6000B8BF4FF0FF3308F102080593314D98F8C3
:103C7000001003222846FCF7ABFA40B14023401B5A
:103C800003FA00F0049B0343049308F1010898F839
:103C9000001029488DF82810062208F10107FCF7CA
:103CA00097FA002834D0254B03BB039B073323F03E
:103CB000070308330393099B4B4409934CE700FB2C
:103CC0000232012186E70023059318460A2588461B
:103CD000013198F80020303A092A03D9002BC5D0C9
:103CE0000590C3E705FB00200123F0E703AB009339
:103CF0002246134B04A93046AFF30080B0F1FF3FDA
:103D00008146D8D1A3895B063FF57DAF09987CE752
:103D100003AB009322460A4B04A9304600F088F812
:103D2000ECE700BF5C470008A04700087C4700089C
:103D30003C470008A6470008AA470008000000000A
:103D4000F53A00082DE9F04791461F468A680B694D
:103D5000DDF820809342B8BF1346C9F8003091F8CF
:103D6000432006460C4612B10133C9F800302368DF
:103D7000990642BFD9F800300233C9F800302568EF
:103D800015F0060507D104F1190AE368D9F80020F7
:103D90009B1A9D4229DB94F843302268003318BFF8
:103DA000012392062ED404F1430239463046C0471F
:103DB000013021D02368E568D9F8002003F006031C
:103DC000042B08BFAD1AA36822690CBF25EAE5756C
:103DD00000259342C4BF9B1AED184FF000091A3416
:103DE0004D451BD10020BDE8F087012352463946DE
:103DF0003046C047013003D14FF0FF30BDE8F087B7
:103E00000135C2E7E1185A1C302081F843002244F2
:103E100094F8451082F843100233C4E70123224688
:103E200039463046C0470130E6D009F10109D7E7ED
:103E30002DE9F04317460A7E85B06E2A984606465D
:103E40000C460C9B01F1430E00F0BC801AD8632A8B
:103E50002ED00AD8002A00F0C880582A00F08A80A4
:103E600004F1420584F842202AE0642A01D0692A3C
:103E7000F6D121681A6811F0800F23D0111D196046
:103E8000136827E0732A00F0B48008D86F2A2AD07C
:103E9000702AE5D10A6842F020020A6003E0752A20
:103EA00021D0782ADCD1782284F845206E4964E05C
:103EB0001A6801F14205111D1960136884F8423037
:103EC0000123A3E011F0400F02F104011960D7D0E3
:103ED000B2F90030002B03DA2D225B4284F8432034
:103EE00062490A2217E02068196810F0800F03D099
:103EF000081D18600B6806E010F0400F01F1040087
:103F00001860F7D00B8859496F2A14BF0A2208227B
:103F1000002084F843006568A560002DC0F29C80F5
:103F2000206820F004002060002B3FD1002D40F0DD
:103F300095807546082A0BD12368DA0708D52369CE
:103F400062689A42DEBF302305F8013C05F1FF3577
:103F5000AEEB05032361CDF800803B4603AA214662
:103F60003046FFF7EFFE013055D14FF0FF3005B07E
:103F7000BDE8F08381F845203C492268186812F0BA
:103F8000800F00F104051D6001D0036802E05506B2
:103F9000FBD50388D00744BF42F0200222601BB942
:103FA000226822F0200222601022B1E77546B3FB9E
:103FB000F2F002FB1033CB5C05F8013D034600280C
:103FC000F5D1B7E708681A68496910F0800F04D086
:103FD000101D18601368196007E010F0400F02F11F
:103FE000040018601368F6D0198000232361754619
:103FF000B1E71A68111D196015686268002128462A
:10400000FCF7E6F808B1401B606063682361002399
:1040100084F843309FE723692A4639463046C04733
:104020000130A2D023689B0707D5002504F11909A8
:10403000E368039A9B1A9D4205DBE068039B984264
:10404000B8BF184693E701234A4639463046C04771
:1040500001308AD00135EBE7002BA7D10B7884F82B
:10406000423004F1420565E7C2470008B147000845
:1040700070B50D461446064618B183690BB9FFF7B3
:104080008DFC134B9C4212D17468A368013B002B3A
:10409000A36016DAA269934202DBEBB20A2B10D1BD
:1040A000224629463046BDE8704000F05BB8094B17
:1040B0009C4201D1B468E8E7074B9C4208BFF46812
:1040C000E3E723685A1C22601D70E8B270BD00BF90
:1040D0005C4700087C4700083C47000810B50C46C8
:1040E000B1F90E1000F048FA0028ABBF636DA38948
:1040F0001B1823F48053ACBF6365A38110BD2DE969
:10410000F0411F468B89DB0505460C46164605D552
:1041100002230022B1F90E1000F0B8F9A389B4F916
:104120000E1023F48053A38132463B462846BDE857
:10413000F04100F069B810B50C46B1F90E1000F06E
:10414000A5F9431CA38915BF606523F4805343F48C
:104150008053A38118BFA38110BDB1F90E1000F0E8
:10416000D3B80000F8B50E461446054618B1836969
:104170000BB9FFF713FC214B9C422AD16C68A36951
:10418000A360A3891A072ED5236963B32369206826
:10419000C01A6369F6B29842374604DB21462846C6
:1041A00000F04AF928BBA368013BA36023685A1CAE
:1041B00022601E7063690130984204D0A389DB0736
:1041C00019D50A2E17D12146284600F035F990B1AD
:1041D0000FE00B4B9C4201D1AC68D0E7094B9C42ED
:1041E00008BFEC68CBE72146284600F01FF80028FE
:1041F000CCD04FF0FF373846F8BD00BF5C47000811
:104200007C4700083C47000838B5074C054608467F
:104210001146002222601A4600F018FA431C02D10F
:10422000236803B12B6038BDE80B0020324B70B51A
:104230001D6806460C4625B1AB6913B92846FFF741
:10424000ADFB2E4B9C420FD16C68B4F90C309AB286
:1042500015072CD4D00611D40922326043F0400354
:10426000A3814FF0FF3070BD254B9C4201D1AC685B
:10427000EBE7244B9C4208BFEC68E6E7510712D5F8
:10428000616B41B104F14403994202D03046FFF71B
:104290005DFA00236363A38923F02403A381002331
:1042A000636023692360A38943F00803A381236922
:1042B0004BB9A38903F42073B3F5007F03D02146E3
:1042C000304600F019F9A28912F001030CD0002346
:1042D000A36063695B42A361236953B9B4F90C30ED
:1042E00013F08000BAD170BD920758BF6369A36014
:1042F000F2E70020F7E700BF200100205C4700083C
:104300007C4700083C47000838B5064C00230546AA
:104310000846236000F064F9431C02D1236803B10E
:104320002B6038BDE80B00208A892DE9F041054655
:1043300010070C465AD44B68002B05DC0B6C002B85
:1043400002DC0020BDE8F081E66A002EF9D00023EF
:1043500012F480522F682B6033D0606DA3895A0706
:1043600005D56368C01A636B0BB1236CC01A0023B8
:104370000246E66A216A2846B047431CA38906D153
:1043800029681D294BD82B4ACA40D60747D5002299
:104390006260D9042269226004D5421C01D12B68D5
:1043A00003B96065616B2F600029CAD004F1440332
:1043B000994202D02846FFF7C9F900206063BDE8A2
:1043C000F081216A01232846B047411CC6D12B68E1
:1043D000002BC3D01D2B01D0162B01D12F60B0E7CD
:1043E000A38943F04003A381BDE8F0810F69002F4A
:1043F000A7D093070E6808BF4B690F6018BF002352
:10440000A6EB07088B60B8F1000F9ADD43463A46E9
:10441000216AA66A2846B047002807DCA38943F032
:104420004003A3814FF0FF30BDE8F0810744A8EBC3
:104430000008E8E70100402038B50B6905460C4646
:10444000DBB118B183690BB9FFF7A8FA0C4B9C429A
:1044500009D16C68B4F90C307BB121462846BDE81F
:104460003840FFF761BF074B9C4201D1AC68F1E7D0
:10447000054B9C4208BFEC68ECE7002038BD00BF4C
:104480005C4700087C4700083C47000838B5074CEB
:10449000054608461146002222601A4600F0B8F888
:1044A000431C02D1236803B12B6038BDE80B002008
:1044B00070B50E46B1F90E10002990B014461D4695
:1044C00007DA00232B60B3891A0610D44FF48063F7
:1044D0000EE001AA00F062F80028F2DB029A02F472
:1044E0007042A2F500535A425A412A60EEE7402337
:1044F0000020236010B070BD8B8973B59D07064600
:104500000C4607D504F1470323602361012363614F
:1045100002B070BD01AB6A46FFF7CAFF00990546BD
:104520003046FFF761F948B9B4F90C309A05EFD479
:1045300023F0030343F00203A381E3E70D4BB362CF
:10454000A389206043F08003A381009B6361019BEA
:1045500020615BB1B4F90E10304600F031F828B19B
:10456000A38923F0030343F00103A381A3891D431F
:10457000A581CDE71D39000838B5074C054608462A
:104580001146002222601A4600F04AF8431C02D16C
:10459000236803B12B6038BDE80B002038B5074C09
:1045A0000023054608461146236000F021F8431C0D
:1045B00002D1236803B12B6038BD00BFE80B002097
:1045C00038B5064C002305460846236000F018F86D
:1045D000431C02D1236803B12B6038BDE80B0020D7
:1045E000024B58221A604FF0FF307047E80B002052
:1045F000024B58221A604FF0FF307047E80B002042
:10460000024B58221A600020704700BFE80B0020C0
:10461000024B58221A604FF0FF307047E80B002021
:10462000024B58221A604FF0FF307047E80B002011
:10463000044B1968024609B9034919601868024415
:104640001A60704750030020EC0B0020024B5822E8
:104650001A604FF0FF307047E80B0020F8B500BF3C
:10466000F8BC08BC9E467047F8B500BFF8BC08BC53
:044670009E467047AB
:104674004552524F523A2000496E76616C6964206B
:104684004465766963652068616E646C6500496E93
:1046940076616C696420436C6173732068616E6435
:1046A4006C65000000000000000000010203040625
:1046B40007080900000000010203042E2E5C537257
:1046C400635C74696D2E63002E2E5C5372635C759B
:1046D400736172742E6300000201022E2E5C537209
:1046E400635C757362645F636F6E662E63004B6513
:1046F40079626F61726420436F6E666967004B650F
:1047040079626F61726420496E7465726661636573
:104714000052656EE9204CFC6C6C61750052474296
:10472400204B6579626F6172640030303030303014
:104734003030303031410000000000000000000043
:104744000000000000000000000000000000000065
:104754000000000000000000000000000000000055
:104764000000000000000000000000000000000045
:104774000000000000000000000000000000000035
:104784000000000000000000000000000000000025
:10479400000000000000000024010020232D302B25
:1047A4002000686C4C00656667454647003031322E
:1047B4003334353637383941424344454600303185
:1047C40032333435363738396162636465660000E4
:0847D400CCBAFF7F01000000D8
:0447DC00B50100081B
:0447E000910100083B
:1047E40005010906A101850105077501950819E070
:1047F40029E7150025018102950375081500256434
:104804000507190029658100C0050C0901A101856E
:1048140002050C150025017501950809B509B609AD
:10482400B709B809CD09E209E909EA8102C006001D
:10483400FF0901A101150026FF007508852096A433
:10484400010901810209019102C000000F2E000834
:10485400E92D00083D2D00080000000000000000C4
:10486400092D0008212D00080000000000000000B0
:1048740000000000FD2C0008FD2C0008FD2C0008A1
:10488400152D000809022900010100E0FA090400BD
:10489400000103000100092111010001226A00073F
:1048A4000581030500010705010340000100000024
:1048B400092111010001226A000000000A06000219
:1048C40000000040010000000024F400ED35000861
:1048D400F935000805360008213600083D36000881
:1048E4005936000875360008120100020000004025
:1048F40083042B5700020102030100000403070490
:1049040024010020000000005C4700087C470008E8
:104914003C47000800000000000000000000000008
:104924000000000000000000000000000000000083
:104934000000000000000000000000000000000073
:104944000000000000000000000000000000000063
:104954000000000000000000000000000000000053
:04496400000000004F
:040000050800369128
:00000001FF
